:020000040000FA
:0400000080312628FD
:100008007E1480318B1E09280A2812280B1D0D2802
:100018000E28122884318024803124280B1F1528AB
:10002800162824282100131E1A281B2824282000FB
:10003800131E1F28202824288431BF248031242817
:100048007E100900803128281B3084008330850009
:10005800A030860000308700403085312725803168
:10006800F001F101F201F301F401F50120308400FF
:1000780000308500273085312D2580317E10200005
:1000880083315B2B7208A03E86008701010820009F
:10009800CA002A084A060319522853285428DD2979
:1000A800C8302006031959285A285B28DD298B30C7
:1000B80021060319602861286228DD29C201F21E81
:1000C800662867286A2822008D176C2822008D135D
:1000D80072196F2870288328F219732874288328C6
:1000E800721A772878288328F21A7B287C28832894
:1000F8002500910122000C1425009801CC297219C1
:10010800862887289B28F2198A288B289B28721A08
:100118008E288F289B28F21E922893289B2825003A
:10012800910122000C1485313D258031CC297219AA
:100138009E289F28B328F219A228A328B328721E44
:10014800A628A728B328F21AAA28AB28B32825007E
:10015800910122000C1484314D248031CC2972196C
:10016800B628B728C828F219BA28BB28C828721E8A
:10017800BE28BF28C828F21EC228C328C8282500C0
:10018800910122000C14AF287219CB28CC28DE2844
:10019800F21DCF28D028DE28721AD328D428DE28CA
:1001A800F21AD728D828DE28853120258031220068
:1001B8000C1480287219E128E228F428F21DE52899
:1001C800E628F428721AE928EA28F428F21EED280D
:1001D800EE28F42885312025803122000C14972838
:1001E8007219F728F8280A29F21DFB28FC280A2981
:1001F800721EFF2800290A29F21A032904290A294C
:1002080085312025803122000C14802872190D298F
:100218000E292029F21D112912292029721E1529BB
:1002280016292029F21E19291A2920298531202565
:10023800803122000C149728721D2329242935297E
:10024800F219272928293529721A2B292C29352909
:10025800F21A2F29302935292500910122000C1482
:100268008028721D382939294A29F2193C293D2943
:100278004A29721A402941294A29F21E4429452946
:100288004A292500910122000C149728721D4D2936
:100298004E295F29F219512952295F29721E5529C1
:1002A80056295F29F21A59295A295F2925009101EF
:1002B80022000C14AF28721D622963297429F219CF
:1002C800662967297429721E6A296B297429F21E06
:1002D8006E296F2974292500910122000C14AF287A
:1002E800721D772978298A29F21D7B297C298A2978
:1002F800721A7F2980298A29F21A832984298A294E
:1003080085312025803122000C108028721D8D290E
:100318008E29A029F21D91299229A029721A9529BE
:100328009629A029F21E99299A29A02985312025E4
:10033800803122000C109728721DA329A429B62900
:10034800F21DA729A829B629721EAB29AC29B629FE
:10035800F21AAF29B029B62985312025803122002B
:100368000C108028721DB929BA29CC29F21DBD2983
:10037800BE29CC29721EC129C229CC29F21EC52941
:10038800C629CC2985312025803122000C109728D8
:100398002000CB014B08203E8600870181010130F7
:1003A800C9004908CB070B304B02031CDC29DD29A7
:1003B800CE290800043026001306031DE429E52988
:1003C8007B2A7708F1007608F000053093002000BA
:1003D8003903031DF029F129A92AB9012C08710252
:1003E800031DF8292B087002031CFB29FC29032A8A
:1003F8002B087002AD002C08713BAE000F2A2C08A8
:10040800F9002B08F800F809F90970087807AD0019
:100418007108793DAE003008F9002F08F800F93668
:10042800F80CF936F80CF936F80C7808BB002E08E9
:10043800F9002D08F800F936F80CF936F80CF936F9
:10044800F80C7808BC003C083B0203182C2A2D2A1B
:10045800312A3B083C02BA00342A3C083B02BA0065
:100468003808031D382A392A482A22000E16103067
:1004780020003A020318412A422AA92AB801B80AD8
:10048800B70122000E12A92A10303A0203184D2A89
:100498004E2A5E2A22000E120130F8002000370A88
:1004A800562AF835890B552A7808FF3AF900790851
:1004B800F4056C2A22000E160130F8002000370AD5
:1004C800662AF835890B652A7808F9007908F40452
:1004D8000130F8007808B70708303702031C752A7E
:1004E800762A7A2AB8010130C600A92AA92A053035
:1004F8001306031D802A812AA92A77082000AC0048
:100508007608AB00043026009300710820002C0206
:10051800031D902A70082B02031C932A942A9B2AF5
:1005280070082B02AF0071082C3BB000A72A710895
:10053800F9007008F800F809F9092B087807AF00E6
:100548002C08793DB000B901B90A0800200046031B
:10055800031DAF2AB02A1A2BC601F72AC830740621
:10056800031DB72AB82ABD2AC401C40A7408A0000A
:100578001A2BC4011A2B8B307406031DC42AC52AF2
:10058800BD2A7408A1000230C4001A2B7408A20006
:100598000330C4001A2B7408A3000430C4001A2BBB
:1005A8007408A4000530C4001A2B7408A50006308E
:1005B800C4001A2B7408A6000730C4001A2B74084C
:1005C800A7000830C4001A2B7408A8000930C4001A
:1005D8001A2B7408A9000A30C4001A2B7408AA0040
:1005E800C501C50ABD2A4408003A0319B22A013ACE
:1005F8000319BF2A033A0319CA2A013A0319CF2A51
:10060800073A0319D42A013A0319D92A033A0319D4
:10061800DE2A013A0319E32A0F3A0319E82A013AB4
:100628000319ED2A033A0319F22ABD2A08004C34AB
:100638009F34ED343E349A34FF34FF34FF3427348A
:10064800FF34FF34FF347334A034D23401348E3491
:100658005D342F34FC346734FF34FF34FF34DA342C
:10066800FF34FF34FF34B13462341034C3342D34D2
:10067800FE348C345F342C34FF34FF34FF34383488
:10068800EB3499344A341234C134B3346034EF341F
:100698003C344E349D34D134FF34FF34FF346C3451
:1006A800FF34FF34FF34D03403347134A23484313E
:1006B80015248331AC302000C7000430C8008531D0
:1006C800332583318B170B178231AA22833183316B
:1006D8008F2383318331C023833120003F08031DDA
:1006E800762B772B822B4003031D7B2B7C2B7E2BB9
:1006F800C001682B803146208331682BBF0122005E
:100708008D170C1485312025833185313D258331A2
:10071800682B8031262820002208F3002308C30014
:10072800F201731D982B992B9B2BF2169C2BF2121E
:10073800F31D9F2BA02BA22B7216A32B7212731ED4
:10074800A62BA72BA92BF215AA2BF211F31EAD2B62
:10075800AE2BB02B7215B12B7211C31EB42BB52B57
:10076800B72BF214B82BF210431FBB2BBC2BBE2B9C
:100778007214BF2B72100800063020002206031DD9
:10078800C62BC72BE52BD5302A06031DCC2BCD2B2A
:10079800E52B22008D172000C001C00A2500910119
:1007A80022000C1420003D08031DDB2BDC2BE12B61
:1007B8008B138331F02383318B172000C201C101D1
:1007C800EF2BC00133304102031CEB2BEC2BEF2B3A
:1007D8003230C100BD0108002000C90149080C3EA3
:1007E8002500980002302000C800AA30C700F63063
:1007F800890BFC2BC70BFC2BC80BFC2B0000013012
:100808002000C7004708C90731304902031C0D2CD6
:100818000E2CF22B3C30250098002000BD01BD0AAB
:1008280008008431312484318531022584318531B1
:10083800392584318431DB2484318431E8248431BE
:1008480085310E2584318531182584318431CE24B3
:1008580084318431982484310800220090018C016D
:100868008D0110308E00083021009000FE308C0081
:100878007F308D00F9308E003F3023008D003F30EF
:100888008C00240090018D012100951722009D0104
:100898000800F21C502C512C572C250098012000E0
:1008A800BE01BE0A662C20003E08031D5C2C5D2C90
:1008B800612CC93025009800662C8B13843167247D
:1008C80084318B1708002000C801911C6C2C6D2CFA
:1008D800692C91100130C70047082500980701309E
:1008E8002000C7004708C807C9304802031C7D2CF0
:1008F8007E2C692CBE0108000B117508200095009C
:100908000130B1070030B23D003032020A3003191D
:100918003102031C902C912C972C8431F5248431BE
:100928002000B101B201080021001508C0391438AF
:1009380095000630200095000630F5000B118B1647
:100948004130C7000530C80085313325843108009F
:100958000130F60076082000C2070130F60076085C
:10096800C107C8304202031CBA2CBB2CBE2CBF01E5
:10097800BF0AC20108002000131226001108FA005D
:100988001208FB007B08F7007A08F6008131DE21A7
:100998008431080010302000990097019601111049
:1009A8001708B6001608B5000130980008000C308A
:1009B80025009A009C0180309B0001309D00990120
:1009C8009801F3309E0508000C302500930095012E
:1009D800803094000130960092019101FC309E0510
:1009E80008002000330834040319FB2CFC2C012DCB
:1009F80034088A0033080A00853108007030210065
:100A0800990098012200960121001A1F0C2D0D2D26
:100A1800082D08000530260093009201910120005E
:100A28001312210013160800C83020009B009A01F9
:100A3800911007309C000800C93025009100000083
:100A4800000000000800FE0012001E00FE0B282D0A
:100A58000034640080010131890B2E2D0034200000
:100A68004808B4004708B300080016302100970072
:0C0A780008000E3025009800080008005F
:020000040001F9
:04000E00C43FFF1FCD
:00000001FF
