:0400000080312628FD
:100008007E1480318B1E09280A2812280B1D0D2802
:100018000E28122882319322803124280B1F15289C
:10002800162824282100931E1A281B28242820007B
:10003800931E1F28202824288231E7228031242873
:100048007E100900803128288530840081308500A1
:10005800A030860000308700403083312F23803164
:10006800F001F101F201F301F401F50120308400FF
:10007800003085002D308331352380317E102000FB
:100088008231562A043026001A06031D4C284D28B2
:10009800E52877082000BC007608BB00053026005C
:1000A8009A0020004403031D5A285B281329C40121
:1000B8003A083C02031D622839083B02031C6528E4
:1000C80066286D2839083B02BD003A083C3BBE0053
:1000D80079283A08F9003908F800F809F9093B08BD
:1000E8007807BD003C08793DBE004008F9003F088C
:1000F800F800F936F80CF936F80CF936F80C7808E7
:10010800C6003E08F9003D08F800F936F80CF93643
:10011800F80CF936F80C7808F10071084602031853
:10012800962897289B2846087102C5009E287108C2
:100138004602C5004308031DA228A328B2282200AE
:100148000E161030200045020318AB28AC281329DE
:10015800C301C30AC20122000E121329103045023E
:100168000318B728B828C82822000E120130F80052
:100178002000420AC028F835890BBF287808FF3AC2
:10018800F9007908F505D62822000E160130F80086
:100198002000420AD028F835890BCF287808F900C2
:1001A8007908F5040130F8007808C20708304202DF
:1001B800031CDF28E028E428C3010130CC00132900
:1001C800132905301A06031DEA28EB281329770896
:1001D8002000BA007608B900043026009A002000F2
:1001E8003C083A02031DFA283B083902031CFD2883
:1001F800FE2805293B083902BF003C083A3BC000ED
:1002080011293C08F9003B08F800F809F9093908F0
:100218007807BF003A08793DC000C401C40A080045
:1002280020004C03031D19291A298429CC016129AE
:10023800C8307506031D212922292729CA01CA0A9F
:100248007508A0008429CA0184298B307506031D0E
:100258002E292F2927297508A1000230CA008429D0
:100268007508A2000330CA0084297508A300043069
:10027800CA0084297508A4000530CA0084297508B5
:10028800A5000630CA0084297508A6000730CA00F0
:1002980084297508A7000830CA0084297508A800B1
:1002A8000930CA0084297508A9000A30CA008429BF
:1002B8007508AA00CB01CB0A27294A08003A031976
:1002C8001C29013A03192929033A03193429013A47
:1002D80003193929073A03193E29013A0319432911
:1002E800033A03194829013A03194D290F3A03190A
:1002F8005229013A03195729033A03195C29272976
:1003080008004C349F34ED3462349A34003400349D
:10031800003427340034003400347334A03471348A
:1003280001348E345D342F34FC34673400340034A7
:100338000034DA340034003400341234A034713418
:1003480001342D34FE348C345F342C3400340034C2
:1003580000343834EB3499344A341234C134B33469
:100368006034EF343C344E349D34D134003400349E
:1003780000346C34003400340034D0340334713425
:10038800A2347308A03E8600870101082000CD0032
:100398002A084D06031DD129D229FE29F31ED52985
:1003A800D629D92922008D16DB2922008D12731E29
:1003B800DE29DF29E1290D16E2290D12F31DE529B1
:1003C800E629E8298D15E9298D11731DEC29ED29F8
:1003D800EF290D15F0290D11F31CF329F429F6293D
:1003E8008D14F7298D10731CFA29FB29FD298E1508
:1003F800FE298E11080020002208F4002308C900F5
:10040800F301741D082A092A0B2AF3160C2AF31281
:10041800F41D0F2A102A122A7316132A7312741E37
:10042800162A172A192AF3151A2AF311F41E1D2A57
:100438001E2A202A7315212A7311C91E242A252A47
:10044800272AF314282AF310491F2B2A2C2A2E2A8C
:1004580073142F2A73100800083023009F0080307F
:100468009D0024309E00A0309B0001309C0000308D
:100478002000CD000030CE00833147238231003088
:100488002000CD000030CE0083314123823100307E
:100498002000CD000030CE0083314D238231200072
:1004A800C10108008231AB22823146302000CD00E4
:1004B8000030CE00833153238231F9302000CD0043
:1004C8000230CE0083313B2382318B170B178131E9
:1004D800142182318131FF2182318131C52182315C
:1004E8006B2A80312628220090018C018D01103062
:1004F8008E00083021009000FF308C00C1308D0044
:10050800A7308E003E3023008D003F308C00240041
:1005180090018D012100951722009D0108000B1103
:100528007008200095000130AD070030AE3D003066
:100538002E02323003192D02031CA32AA42AAA2A48
:100548008331162382312000AD01AE0108008231CB
:1005580077228231833123238231833159238231B7
:100568008231D52282318331092382318231C122FD
:100578008231823130228231080021001508C039C9
:10058800143895000630200095000630F0000B1155
:100598008B165D30CD000330CE0083313B23823192
:1005A8000800043026009A00980199015E30200066
:1005B800CD000330CE0083315323823120009312C3
:1005C8002100931608002000931226001808FA004C
:1005D8001908FB007B08F7007A08F60020003808A5
:1005E8008A0037080A0082310800200047030319EF
:1005F800FE2AFF2A042B4803031D032B042B082B78
:100608000130F6007608F207080010302000990043
:100618009701960111101708AC001608AB000130BD
:100628009800080020002F08300403191C2B1D2BEC
:10063800222B30088A002F080A0083310800703006
:100648002100990098012200960121001A1F2D2BE4
:100658002E2B292B0800FE0012001E00FE0B302B4B
:100668000034640080010131890B362B00342000EE
:100678004E08B0004D08AF00080020004E08B40036
:100688004D08B300080020004E08B6004D08B5001C
:10069800080020004E08B2004D08B10008002000F4
:1006A8004E08B8004D08B700080016302100970022
:0606B80008000800080024
:020000040001F9
:08000000FF3FFF3FFF3FFF3F00
:04000E00E43FFF1FAD
:00000001FF
