:020000040000FA
:0400000080312628FD
:100008007E1480318B1E09280A2812280B1D0D2802
:100018000E28122884316F24803124280B1F1528BC
:10002800162824282100131E1A281B2824282000FB
:10003800131E1F28202824288431BF248031242817
:100048007E10090080312828F001F101F201F30146
:10005800F401F50120308400003085002B30853113
:10006800412580317E10200082317F2A7208CB3EE4
:10007800840082300318013E850000082000CE006D
:10008800CF012A084E0603194A284B284C28412933
:10009800C8302006031951285228532841298B308B
:1000A80021060319582859285A284129C601F21E41
:1000B8005E285F286328853182258031662885314E
:1000C8007F25803120004F10F21E6B284F1420002E
:1000D800CF10721E7028CF1420004F11F21D752802
:1000E8004F152000CF11721D7A28CF15FD288531B4
:1000F8005925803185318525803185317C258031B0
:1001080030298531592580318531852580318531E2
:100118007125803130293D08031D9328942897289C
:1001280085315925803185318525803120003E0370
:10013800031D9F28A028A42883316F2380313029EC
:1001480085310E25803130293D08031DAC28AD28A6
:10015800B0288531592580318531852580312000A9
:100168003E03031DB828B928A428A02885314D25A9
:10017800803185318525803185317C258031302954
:1001880085314D2580318531852580318B283D0885
:10019800031DCF28D028D3288531592580318531B2
:1001A8008525803120003E03031DDB28DC28A42898
:1001B800A0283D08031DE128E228E52885315925B6
:1001C800803185318525803120003E03031DED28CF
:1001D800EE28A428A02885314D2580318531792540
:1001E8008031C02885314D25803185317925803190
:1001F8008B2820004F08003A03197B28013A03197D
:100208008528033A03198F28013A0319A828073AC1
:100218000319BA28013A0319C428033A0319BA285A
:10022800013A0319C4280F3A03197B28013A031924
:100238008528033A0319CB28013A0319DD28073A20
:100248000319EF28013A0319F628033A0319EF288E
:10025800013A0319F62830292000D0015008203E21
:100268008600870181010130CD004D08D0070B3091
:100278005002031C40294129322908000430260075
:100288001306031D48294929DF297708F100760854
:10029800F0000530930020003903031D5429552927
:1002A8000D2AB9012C087102031D5C292B08700264
:1002B800031C5F29602967292B087002AD002C08F0
:1002C800713BAE0073292C08F9002B08F800F809D7
:1002D800F90970087807AD007108793DAE0030085B
:1002E800F9002F08F800F936F80CF936F80CF93649
:1002F800F80C7808BB002E08F9002D08F800F9362C
:10030800F80CF936F80CF936F80C7808BC003C08FB
:100318003B0203189029912995293B083C02BA0011
:1003280098293C083B02BA003808031D9C299D29DE
:10033800AC2922000E16103020003A020318A52915
:10034800A6290D2AB801B80AB70122000E120D2AF3
:1003580010303A020318B129B229C22922000E121C
:100368000130F8002000370ABA29F835890BB92975
:100378007808FF3AF9007908F405D02922000E160A
:100388000130F8002000370ACA29F835890BC92935
:100398007808F9007908F4040130F8007808B707FC
:1003A80008303702031CD929DA29DE29B8010130BF
:1003B800CA000D2A0D2A05301306031DE429E52974
:1003C8000D2A77082000AC007608AB000430260020
:1003D8009300710820002C02031DF42970082B02D9
:1003E800031CF729F829FF2970082B02AF007108B0
:1003F8002C3BB0000B2A7108F9007008F800F809C6
:10040800F9092B087807AF002C08793DB000B9012D
:10041800B90A080020004A03031D132A142A7E2A59
:10042800CA015B2AC8307406031D1B2A1C2A212A0C
:10043800C801C80A7408A0007E2AC8017E2A8B3029
:100448007406031D282A292A212A7408A1000230CB
:10045800C8007E2A7408A2000330C8007E2A7408E7
:10046800A3000430C8007E2A7408A4000530C80020
:100478007E2A7408A5000630C8007E2A7408A600E3
:100488000730C8007E2A7408A7000830C8007E2AF2
:100498007408A8000930C8007E2A7408A9000A3028
:1004A800C8007E2A7408AA00C901C90A212A480876
:1004B800003A0319162A013A0319232A033A0319A1
:1004C8002E2A013A0319332A073A0319382A013A1E
:1004D80003193D2A033A0319422A013A0319472A04
:1004E8000F3A03194C2A013A0319512A033A0319FE
:1004F800562A212A08008431022482319B302000A8
:10050800CB000430CC008531472582318B170B177F
:10051800003020008D1A0130BE0000308D190130E6
:10052800BF008531A325823182310E228231833189
:10053800C423823183313D23823183310B238231BD
:1005480020004208031DA92AAA2ABB2A440303192A
:10055800AE2AAF2AB42A4303031DB32AB42AB72A02
:10056800C401C301982A80313A208231982AC201F5
:1005780085318225823185318525823185314D2528
:100588008231853171258231982A803126284C3470
:100598009F34ED343E346634B534C734143459349A
:1005A8008A34F8342B347334A034D23401348E3482
:1005B8005D342F34FC34A43477340534D6349B347A
:1005C80048343A34E934B13462341034C3342D3405
:1005D800FE348C345F340734D434A634753438345C
:1005E800EB3499344A341234C134B3346034EF34C0
:1005F8003C344E349D34C53416346434B734FA343C
:1006080029345B348834D03403347134A234023052
:1006180020002206031D112B122B322BB4302A0680
:10062800031D172B182B322BC301C30A85317F25D5
:1006380083318531592583318531852583312000E2
:100648004008031D282B292B2E2B8B1383319F2326
:1006580083318B172000C601C5013C2BC401333000
:100668004502031C382B392B3C2B3230C500C00106
:100678000800063020002206031D432B442B642B60
:10068800D5302A06031D492B4A2B642BC401C40A02
:1006980085318225833185315925833185318525F9
:1006A800833120004008031D5A2B5B2B602B8B13D2
:1006B80083319F2383318B172000C601C5016E2B20
:1006C800C40133304502031C6A2B6B2B6E2B32306E
:1006D800C500C001080020003F08031D742B752BBE
:1006E8008E2B721C782B792B7F2B250098012000EC
:1006F800C101C10A9E2B4108031D832B842B882B23
:10070800C930250098009E2B8B13843156248331E1
:100718008B179E2BF21C912B922B932B792B410834
:10072800031D972B982B992B842B8B1384315624DC
:1007380083318B1708002000CD014D080C3E2500A1
:10074800980002302000CC00AA30CB00F630890B8C
:10075800AB2BCB0BAB2BCC0BAB2B00000130200011
:10076800CB004B08CD0731304D02031CBC2BBD2BF1
:10077800A12B3C30250098002000C001C00A0800C9
:1007880020002208F3002308C700F201F212731DAB
:10079800CE2BF2167212F31DD22B7216F211731EA3
:1007A800D62BF2157211F31EDA2B7215F2102000F7
:1007B800C71EDF2BF21472102000471FE42B72149F
:1007C8000800220090018C018D0110308E00083045
:1007D80021009000FE308C007F308D00F9308E00B3
:1007E800133023008D003F308C00240090012C3002
:1007F8008D002100951322009D0108008331E52317
:10080800843185310225843185316D2584318431E7
:10081800DB2484318431E8248431853139258431DD
:100828008531262584318431CE248431843187244E
:100838008431080020004C08CE004B08CD00CE368D
:10084800CD0CCE36CD0C4D082500980020004B0865
:100858000339CD000430CD35890B2F2C25001A081B
:10086800CF3920004D0425009A00080020004C08CC
:10087800CE004B08CD00CE36CD0CCE36CD0C4D0873
:100888002500910020004B080339CD000430CD35F8
:10089800890B4B2C25001308CF3920004D04250067
:1008A800930008002000CC01911C5B2C5C2C582C78
:1008B80091100130CB004B0825009807013020002B
:1008C800CB004B08CC07C9304C02031C6C2C6D2C98
:1008D800582CC10108000B11750820009500013043
:1008E800B1070030B23D003032020A30031931023C
:1008F800031C7F2C802C862C8431F5248431200025
:10090800B101B201080021001508C039143895005A
:100918000630200095000630F5000B118B16A53027
:10092800CB000530CC0085314725843108000130E3
:10093800F60076082000C6070130F6007608C507DD
:10094800C8304602031CA92CAA2CAD2CC201C20A2D
:10095800C60108002000181DB22CB32CBA2C1810A0
:100968004C0897004B0896001814BE2C4C089700AA
:100978004B08960008002000131226001108FA0000
:100988001208FB007B08F7007A08F6008131422143
:100998008431080010302000990097019601111049
:1009A8001708B6001608B5000130980008000C308A
:1009B80025009A009C0180309B0001309D00990120
:1009C8009801F3309E0508000C302500930095012E
:1009D800803094000130960092019101FC309E0510
:1009E80008002000330834040319FB2CFC2C012DCB
:1009F80034088A0033080A00853108007030210065
:100A0800990098012200960121001A1F0C2D0D2D26
:100A1800082D080020003D08031D132D142D192D45
:100A2800BD01BD0A64302500910008000030200097
:100A380091180130CB004B080319232D242D252DA7
:100A480091100800053026009300920191012000C2
:100A5800131221001316080020003608CC003508B0
:100A6800CB008431AE2485310800C83020009B00BB
:100A78009A01911007309C00080064008001013140
:100A8800890B422D003420004C08B4004B08B300F9
:100A980008002000BD01C930250091000800200091
:100AA8001608CC001708CB0008002000BD0125005F
:100AB800910108002000CB004B089A000800200094
:100AC800CB004B089B0008002000CB004B0895008A
:100AD800080016302100970008000E302500980005
:100AE8000800750820009500080022000C10080076
:100AF80025009801080022008D13080022008D1798
:100B0800080022000C14080020001C110800200016
:100B18001C15080020001A080800200018100800FA
:100B2800200018140800200099150800200011085A
:100B3800080020001908080020001508080008000F
:040B48000800080099
:020000040001F9
:04000E00C43FFF1FCD
:00000001FF
