:020000040000FA
:0400000080312628FD
:100008007E1480318B1E09280A2812280B1D0D2802
:100018000E28122884318124803124280B1F1528AA
:10002800162824282100131E1A281B2824282000FB
:10003800131E1F28202824288431D1248031242805
:100048007E10090080312828F001F101F201F30146
:10005800F401F50120308400003085002C30853112
:10006800532580317E10200082316C2A7208B83EF8
:10007800840082300318013E850000082000CF006C
:10008800D0012A084F0603194A284B284C28412931
:10009800C8302006031951285228532841298B308B
:1000A80021060319582859285A284129C701F21E40
:1000B8005E285F2863288531972580316628853139
:1000C8009425803120005010F21E6B285014200017
:1000D800D010721E7028D01420005011F21D7528FF
:1000E80050152000D011721D7A28D015FD288531B1
:1000F8006B25803185319A25803185318E25803177
:10010800302985316B25803185319A2580318531BB
:100118008325803130293D08031D9328942897288A
:1001280085316B25803185319A25803120003E0349
:10013800031D9F28A028A42883315F2380313029FC
:1001480085312025803130293D08031DAC28AD2894
:10015800B02885316B25803185319A258031200082
:100168003E03031DB828B928A428A02885315F2597
:10017800803185319A25803185318E25803130292D
:1001880085315F25803185319A2580318B283D085E
:10019800031DCF28D028D32885316B2580318531A0
:1001A8009A25803120003E03031DDB28DC28A42883
:1001B800A0283D08031DE128E228E52885316B25A4
:1001C800803185319A25803120003E03031DED28BA
:1001D800EE28A428A02885315F25803185318B251C
:1001E8008031C02885315F25803185318B2580316C
:1001F8008B2820005008003A03197B28013A03197C
:100208008528033A03198F28013A0319A828073AC1
:100218000319BA28013A0319C428033A0319BA285A
:10022800013A0319C4280F3A03197B28013A031924
:100238008528033A0319CB28013A0319DD28073A20
:100248000319EF28013A0319F628033A0319EF288E
:10025800013A0319F62830292000D1015108203E1F
:100268008600870181010130CE004E08D1070B308E
:100278005102031C40294129322908000430260074
:100288001306031D48294929CC2977082000AE0008
:100298007608AD0005302600930020003B03031DBF
:1002A80056295729FA29BB012B082D02AF002C0823
:1002B8002E3BB0003208F9003108F800F936F80C86
:1002C800F936F80CF936F80C7808F0003008F9001F
:1002D8002F08F800F936F80CF936F80CF936F80C4E
:1002E8007808F1001A307102031C7B297C297F29C8
:1002F80022000E16812922000E12710870020318BE
:10030800862987298C29700871022000BC00902951
:10031800710870022000BC003A08031D9429952931
:100328009F2910303C0203189A299B29CB29BA012E
:10033800BA0AB901FA2910303C020318A429A529E0
:10034800B2290130F800390AAA29F835890BA929F8
:100358007808FF3AF9007908F405BD290130F8005A
:10036800390AB729F835890BB6297808F9007908C8
:10037800F4040130F8007808B90708303902031C82
:10038800C629C729CB29BA010130CB00FA29FA2995
:1003980005301306031DD129D229FA297708200030
:1003A800AC007608AB0004302600930020002E082D
:1003B8002C02031DE1292D082B02031CE429E52941
:1003C800EC292D082B02B1002E082C3BB200F8298D
:1003D8002E08F9002D08F800F809F9092B08780704
:1003E800B1002C08793DB200BB01BB0A080020000F
:1003F8004B03031D002A012A6B2ACB01482AC83067
:100408007406031D082A092A0E2AC901C90A740894
:10041800A0006B2AC9016B2A8B307406031D152AAC
:10042800162A0E2A7408A1000230C9006B2A740823
:10043800A2000330C9006B2A7408A3000430C90065
:100448006B2A7408A4000530C9006B2A7408A5003B
:100458000630C9006B2A7408A6000730C9006B2A49
:100468007408A7000830C9006B2A7408A80009306E
:10047800C9006B2A7408A9000A30C9006B2A7408DD
:10048800AA00CA01CA0A0E2A4908003A0319032A0F
:10049800013A0319102A033A03191B2A013A0319CE
:1004A800202A073A0319252A013A03192A2A033A66
:1004B80003192F2A013A0319342A0F3A0319392A42
:1004C800013A03193E2A033A0319432A0E2A08005F
:1004D800843114248231AD302000CC000430CD00AA
:1004E8008531592582318B170B17003020008D1A62
:1004F8000130BE0000308D190130BF008531B825AC
:1005080082318131FB2182318331D623823183319B
:100518002D2382318231F822823120004308031DC5
:10052800962A972AA82A450303199B2A9C2AA12AB6
:100538004403031DA02AA12AA42AC501C401852AAF
:1005480080313A208231852AC3018531972582314D
:1005580085319A25823185315F2582318531832520
:100568008231852A803126284C349F34ED343E343C
:100578006634B534C734143459348A34F8342B34D7
:100588007334A034D23401348E345D342F34FC34C7
:10059800A43477340534D6349B3448343A34E934B7
:1005A800B13462341034C3342D34FE348C345F34A7
:1005B8000734D434A63475343834EB3499344A3497
:1005C8001234C134B3346034EF343C344E349D3487
:1005D800C53416346434B734FA3429345B34883477
:1005E800D03403347134A234023020002206031DB3
:1005F800FE2AFF2A222BB4302A06031D042B052BC2
:10060800222BC401C40A85319425823185316B259A
:10061800823185319A2582318531912582312000B8
:100628004008031D182B192B1E2B8B138331B42361
:1006380082318B172000C701C6012C2BC40133302F
:100648004602031C282B292B2C2B3230C600C00154
:100658000800063020002206031D332B342B542BB0
:10066800D5302A06031D392B3A2B542BC501C50A50
:1006780085319725833185316B25833185319A25DD
:10068800833120004108031D4A2B4B2B502B8B1321
:1006980083318F2383318B172000C701C6015E2B5E
:1006A800C50133304602031C5A2B5B2B5E2B3230BC
:1006B800C600C101080020003F08031D642B652BFC
:1006C8007E2B721C682B692B6F2B2500980120004C
:1006D800C201C20A8E2B4208031D732B742B782B80
:1006E800C930250098008E2B8B1384316824833100
:1006F8008B178E2BF21C812B822B832B692B4208A4
:10070800031D872B882B892B742B8B13843168242A
:1007180083318B1708002000CE014E080C3E2500BF
:10072800980002302000CD00AA30CC00F630890BAA
:100738009B2BCC0B9B2BCD0B9B2B0000013020005F
:10074800CC004C08CE0731304E02031CAC2BAD2B2D
:10075800912B3C30250098002000C101C10A0800F7
:100768003C302000CE004E082500980002302000C2
:10077800CD00AA30CC00F630890BC02BCC0BC02B97
:10078800CD0BC02B000001302000CE020D304E02F0
:100798000318CF2BD02BB72B250098012000C001C0
:1007A800C00A080020002208F3002308C800F2014C
:1007B800F212731DE02BF2167212F31DE42B72165F
:1007C800F211731EE82BF2157211F31EEC2B721541
:1007D800F2102000C81EF12BF21472102000481FDE
:1007E800F62B72140800220090018C018D01103044
:1007F8008E00083021009000FE308C007F308D0084
:10080800E9308E00133023008D003F308C00240027
:1008180090012C308D002100951322009D010800C5
:100828008331F723843185311425843185317F253F
:1008380084318431ED2484318431FA248431853142
:100848004B2584318531382584318431E024843145
:10085800843199248431080020004D08CF004C08C9
:10086800CE00CF36CE0CCF36CE0C4E0825009800E1
:1008780020004C080339CE000430CE35890B412CBA
:1008880025001A08CF3920004E0425009A000800D8
:1008980020004D08CF004C08CE00CF36CE0CCF3606
:1008A800CE0C4E082500910020004C080339CE00DC
:1008B8000430CE35890B5D2C25001308CF39200074
:1008C8004E042500930008002000CD01911C6D2CDA
:1008D8006E2C6A2C91100130CC004C08250098072A
:1008E80001302000CC004C08CD07C9304D02031C54
:1008F8007E2C7F2C6A2CC20108000B117508200081
:1009080095000130B3070030B43D003034020A309E
:1009180003193302031C912C922C982C853107253E
:1009280084312000B301B401080021001508C03942
:10093800143895000630200095000630F5000B119C
:100948008B16BA30CC000530CD008531592584315D
:1009580008000130F60076082000C7070130F600CD
:100968007608C607C8304702031CBB2CBC2CBF2C1A
:10097800C301C30AC70108002000181DC42CC52CD8
:10098800CC2C18104D0897004C0896001814D02C41
:100998004D0897004C089600080020001312260006
:1009A8001108FA001208FB007B08F7007A08F60025
:1009B80081314221843108001030200099009701CC
:1009C800960111101708B8001608B70001309800F2
:1009D80008000C3025009A009C0180309B000130F3
:1009E8009D0099019801F3309E0508000C30250000
:1009F8009300950180309400013096009201910196
:100A0800FC309E05080020003508360403190D2D1A
:100A18000E2D132D36088A0035080A008531080086
:100A280070302100990098012200960121001A1FB8
:100A38001E2D1F2D1A2D080020003D08031D252DF1
:100A4800262D2B2DBD01BD0A64302500910008001C
:100A58000030200091180130CC004C080319352DC6
:100A6800362D372D9110080005302600930092018D
:100A780091012000131221001316080020003808E5
:100A8800CD003708CC008431C02485310800C83037
:100A980020009B009A01911007309C000800640018
:100AA80080010131890B542D003420004D08B60017
:100AB8004C08B50008002000BD01C9302500910090
:100AC800080020001608CD001708CC0008002000F8
:100AD800BD012500910108002000CC004C089A00B7
:100AE80008002000CC004C089B0008002000CC0027
:100AF8004C089500080016302100970008000E30B9
:100B080025009800080075082000950008002200BC
:100B18000C1008002500980108002500980108001D
:100B280022008D13080022008D17080022000C14E3
:100B3800080020001C11080020001C1508002000D7
:100B48001A080800200018100800200018140800CF
:100B58002000991508002000110808002000190835
:0E0B680008002000150808000800080008001A
:020000040001F9
:04000E00C43FFF1FCD
:00000001FF
