:020000040000FA
:0400000080312628FD
:100008007E1480318B1E09280A2812280B1D0D2802
:100018000E28122884315C24803124280B1F1528CF
:10002800162824282100131E1A281B2824282000FB
:10003800131E1F28202824288431AC24803124282A
:100048007E10090080312828F001F101F201F30146
:10005800F401F50120308400003085002B30853113
:100068002E2580317E10200082316C2A7208B83E1D
:10007800840082300318013E850000082000CE006D
:10008800CF012A084E0603194A284B284C28412933
:10009800C8302006031951285228532841298B308B
:1000A80021060319582859285A284129C601F21E41
:1000B8005E285F28632885316F2580316628853161
:1000C8006C25803120004F10F21E6B284F14200041
:1000D800CF10721E7028CF1420004F11F21D752802
:1000E8004F152000CF11721D7A28CF15FD288531B4
:1000F80046258031853172258031853169258031E9
:100108003029853146258031853172258031853108
:100118005E25803130293D08031D932894289728AF
:1001280085314625803185317225803120003E0396
:10013800031D9F28A028A42883315C2380313029FF
:100148008431FB24803130293D08031DAC28AD28BB
:10015800B0288531462580318531722580312000CF
:100168003E03031DB828B928A428A02885313A25BC
:10017800803185317225803185316925803130297A
:1001880085313A2580318531722580318B283D08AB
:10019800031DCF28D028D3288531462580318531C5
:1001A8007225803120003E03031DDB28DC28A428AB
:1001B800A0283D08031DE128E228E52885314625C9
:1001C800803185317225803120003E03031DED28E2
:1001D800EE28A428A02885313A2580318531662566
:1001E8008031C02885313A258031853166258031B6
:1001F8008B2820004F08003A03197B28013A03197D
:100208008528033A03198F28013A0319A828073AC1
:100218000319BA28013A0319C428033A0319BA285A
:10022800013A0319C4280F3A03197B28013A031924
:100238008528033A0319CB28013A0319DD28073A20
:100248000319EF28013A0319F628033A0319EF288E
:10025800013A0319F62830292000D0015008203E21
:100268008600870181010130CD004D08D0070B3091
:100278005002031C40294129322908000430260075
:100288001306031D48294929CC2977082000AE0008
:100298007608AD0005302600930020003B03031DBF
:1002A80056295729FA29BB012B082D02AF002C0823
:1002B8002E3BB0003208F9003108F800F936F80C86
:1002C800F936F80CF936F80C7808F0003008F9001F
:1002D8002F08F800F936F80CF936F80CF936F80C4E
:1002E8007808F1001A307102031C7B297C297F29C8
:1002F80022000E16812922000E12710870020318BE
:10030800862987298C29700871022000BC00902951
:10031800710870022000BC003A08031D9429952931
:100328009F2910303C0203189A299B29CB29BA012E
:10033800BA0AB901FA2910303C020318A429A529E0
:10034800B2290130F800390AAA29F835890BA929F8
:100358007808FF3AF9007908F405BD290130F8005A
:10036800390AB729F835890BB6297808F9007908C8
:10037800F4040130F8007808B90708303902031C82
:10038800C629C729CB29BA010130CA00FA29FA2996
:1003980005301306031DD129D229FA297708200030
:1003A800AC007608AB0004302600930020002E082D
:1003B8002C02031DE1292D082B02031CE429E52941
:1003C800EC292D082B02B1002E082C3BB200F8298D
:1003D8002E08F9002D08F800F809F9092B08780704
:1003E800B1002C08793DB200BB01BB0A080020000F
:1003F8004A03031D002A012A6B2ACA01482AC83069
:100408007406031D082A092A0E2AC801C80A740896
:10041800A0006B2AC8016B2A8B307406031D152AAD
:10042800162A0E2A7408A1000230C8006B2A740824
:10043800A2000330C8006B2A7408A3000430C80067
:100448006B2A7408A4000530C8006B2A7408A5003C
:100458000630C8006B2A7408A6000730C8006B2A4B
:100468007408A7000830C8006B2A7408A80009306F
:10047800C8006B2A7408A9000A30C8006B2A7408DF
:10048800AA00C901C90A0E2A4808003A0319032A12
:10049800013A0319102A033A03191B2A013A0319CE
:1004A800202A073A0319252A013A03192A2A033A66
:1004B80003192F2A013A0319342A0F3A0319392A42
:1004C800013A03193E2A033A0319432A0E2A08005F
:1004D8008331EF23823188302000CB000430CC00F8
:1004E8008531342582318B170B17003020008D1A87
:1004F8000130BE0000308D190130BF0085319025D4
:1005080082318131FB2182318331B12382318331C0
:100518002A2382318231F822823120004208031DC9
:10052800962A972AA82A440303199B2A9C2AA12AB7
:100538004303031DA02AA12AA42AC401C301852AB2
:1005480080313A208231852AC20185316F25823176
:1005580085317225823185313A25823185315E2592
:100568008231852A803126284C349F34ED343E343C
:100578006634B534C734143459348A34F8342B34D7
:100588007334A034D23401348E345D342F34FC34C7
:10059800A43477340534D6349B3448343A34E934B7
:1005A800B13462341034C3342D34FE348C345F34A7
:1005B8000734D434A63475343834EB3499344A3497
:1005C8001234C134B3346034EF343C344E349D3487
:1005D800C53416346434B734FA3429345B34883477
:1005E800D03403347134A234023020002206031DB3
:1005F800FE2AFF2A1F2BB4302A06031D042B052BC5
:100608001F2BC301C30A85316C25823185314625EC
:10061800823185317225823120004008031D152B57
:10062800162B1B2B8B1383318C2382318B172000C5
:10063800C601C501292BC40133304502031C252BF3
:10064800262B292B3230C500C001080006302000B7
:100658002206031D302B312B512BD5302A06031DC2
:10066800362B372B512BC401C40A85316F258331B2
:100678008531462583318531722583312000400834
:10068800031D472B482B4D2B8B1383318C23833130
:100698008B172000C601C5015B2BC401333045020E
:1006A800031C572B582B5B2B3230C500C0010800A8
:1006B80020003F08031D612B622B7B2B721C652BCE
:1006C800662B6C2B250098012000C101C10A8B2BD9
:1006D8004108031D702B712B752BC930250098001C
:1006E8008B2B8B138431432483318B178B2BF21C78
:1006F8007E2B7F2B802B662B4108031D842B852B9B
:10070800862B712B8B138431432483318B1708007C
:100718002000CD014D080C3E250098000230200035
:10072800CC00AA30CB00F630890B982BCB0B982B3A
:10073800CC0B982B000001302000CB004B08CD07D4
:1007480031304D02031CA92BAA2B8E2B3C302500DF
:1007580098002000C001C00A080020002208F30009
:100768002308C700F201F212731DBB2BF216721296
:10077800F31DBF2B7216F211731EC32BF2157211E3
:10078800F31EC72B7215F2102000C71ECC2BF214D3
:1007980072102000471FD12B72140800220090010C
:1007A8008C018D0110308E00083021009000FE3041
:1007B8008C007F308D00E9308E00133023008D00CF
:1007C8003F308C00240090012C308D0021009513BF
:1007D80022009D0108008331D22383318431EF2424
:1007E800833185315A2583318431C824833184315A
:1007F800D5248331853126258331853113258331ED
:100808008431BB248331843174248331080020006F
:100818004C08CE004B08CD00CE36CD0CCE36CD0CD4
:100828004D082500980020004B080339CD000430FE
:10083800CD35890B1C2C25001A08CF3920004D0412
:1008480025009A00080020004C08CE004B08CD0077
:10085800CE36CD0CCE36CD0C4D08250091002000AB
:100868004B080339CD000430CD35890B382C2500D1
:100878001308CF3920004D042500930008002000FC
:10088800CC01911C482C492C452C91100130CB00EF
:100898004B082500980701302000CB004B08CC07F7
:1008A800C9304C02031C592C5A2C452CC101080094
:1008B8000B117508200095000130B3070030B43DD6
:1008C800003034020A3003193302031C6C2C6D2CDF
:1008D800732C8431E22484312000B301B401080070
:1008E80021001508C03914389500063020009500FD
:1008F8000630F5000B118B169230CB000530CC007A
:1009080085313425843108000130F600760820004E
:10091800C6070130F6007608C507C8304602031C32
:10092800962C972C9A2CC201C20AC60108002000F6
:10093800181D9F2CA02CA72C18104C0897004B08AA
:1009480096001814AB2C4C0897004B08960008002A
:100958002000131226001108FA001208FB007B0879
:10096800F7007A08F60081314221843108001030FE
:10097800200099009701960111101708B800160871
:10098800B7000130980008000C3025009A009C013F
:1009980080309B0001309D0099019801F3309E053D
:1009A80008000C3025009300950180309400013038
:1009B800960092019101FC309E0508002000350840
:1009C80036040319E82CE92CEE2C36088A00350881
:1009D8000A00843108007030210099009801220033
:1009E800960121001A1FF92CFA2CF52C080020007A
:1009F8003D08031D002D012D062DBD01BD0A6430E3
:100A08002500910008000030200091180130CB002B
:100A18004B080319102D112D122D911008000530C7
:100A28002600930092019101200013122100131651
:100A3800080020003808CC003708CB0084319B24FC
:100A480085310800C83020009B009A0191100730BA
:100A58009C000800640080010131890B2F2D0034AF
:100A680020004C08B6004B08B50008002000BD0166
:100A7800C93025009100080020001608CC0017088E
:100A8800CB0008002000BD012500910108002000CE
:100A9800CB004B089A0008002000CB004B089B00B5
:100AA80008002000CB004B089500080016302100F4
:100AB800970008000E3025009800080075082000EF
:100AC8009500080022000C10080025009801080075
:100AD80022008D13080022008D17080022000C1434
:100AE800080020001C11080020001C150800200028
:100AF8001A08080020001810080020001814080020
:100B08002000991508002000110808002000190885
:0E0B180008002000150808000800080008006A
:020000040001F9
:04000E00C43FFF1FCD
:00000001FF
