:020000040000FA
:0400000080312628FD
:100008007E1480318B1E09280A2812280B1D0D2802
:100018000E28122885312125803124280B1F152808
:10002800162824282100131E1A281B2824282000FB
:10003800131E1F2820282428853180258031242854
:100048007E10090080312828A03084008330850084
:10005800A03086000030870040308531FF25803190
:10006800F001F101F201F301F401F50120308400FF
:10007800003085002A308631052680317E10200028
:100088008331582B7208A03E8600870101082000A2
:10009800CD002A084D0603195228532854281A2A35
:1000A800C8302006031959285A285B281A2A8B3089
:1000B800210603196028612862281A2AC501F21E40
:1000C800662867286A2822008D176C2822008D135D
:1000D80072196F2870288428F219732874288428C4
:1000E800721A772878288428F21A7B287C28842892
:1000F80086311726803122000C1425009801092A20
:100108007219872888289D28F2198B288C289D2801
:10011800721A8F2890289D28F21E932894289D28CB
:1001280086311726803122000C1486312F26803123
:10013800092A7219A028A128C628F219A428A528D6
:10014800C628721EA828A928C628F21AAC28AD28E5
:10015800C62820003D08031DB228B328B6288631DA
:100168001726803122000C1420003E03031DBD28F1
:10017800BE28C228843142248031092A853171255C
:100188008031092A7219C928CA28E828F219CD2805
:10019800CE28E828721ED128D228E828F21ED528B1
:1001A800D628E82820003D08031DDB28DC28DF28A6
:1001B80086311726803122000C1420003E03031DCF
:1001C800E628E728C228BE287219EB28EC28FE2862
:1001D800F21DEF28F028FE28721AF328F428FE28CA
:1001E800F21AF728F828FE288531E5258031220003
:1001F8000C1481287219012902291429F21D0529D4
:1002080006291429721A09290A291429F21E0D2906
:100218000E2914298531E525803122000C149928EE
:100228007219172918292A29F21D1B291C292A297C
:10023800721E1F2920292A29F21A232924292A294A
:100248008531E525803122000C14812872192D2969
:100258002E294029F21D312932294029721E3529BB
:1002680036294029F21E39293A2940298531E525C0
:10027800803122000C149928721D432944295629DB
:10028800F219472948295629721A4B294C29562907
:10029800F21A4F2950295629863117268031220013
:1002A8000C148128721D59295A296C29F2195D29C3
:1002B8005E296C29721A612962296C29F21E652946
:1002C80066296C2986311726803122000C1499285A
:1002D800721D6F2970298E29F219732974298E29A4
:1002E800721E772978298E29F21A7B297C298E2972
:1002F80020003D08031D812982298529863117267A
:10030800803122000C1420003E03031D8C298D2906
:10031800C228BE28721D91299229B129F21995295E
:100328009629B129721E99299A29B129F21E9D2967
:100338009E29B12920003D08031DA329A429A72926
:1003480086311726803122000C1420003E03031D3D
:10035800AE29AF29C228BE28092A721DB429B52999
:10036800C729F21DB829B929C729721ABC29BD297C
:10037800C729F21AC029C129C7298531E525803145
:1003880022000C108128721DCA29CB29DD29F21DF3
:10039800CE29CF29DD29721AD229D329DD29F21EC7
:1003A800D629D729DD298531E525803122000C1091
:1003B8009928721DE029E129F329F21DE429E5298C
:1003C800F329721EE829E929F329F21AEC29ED2903
:1003D800F3298531E525803122000C108128721D12
:1003E800F629F729B029F21DFA29FB29B029721E2E
:1003F800FE29FF29B029F21E022A032AB0298531D5
:10040800E525803122000C1099282000CE014E08E5
:10041800203E8600870181010130CC004C08CE07C0
:100428000B304E02031C192A1A2A0B2A0800043022
:1004380026001306031D212A222AB82A7708F1006C
:100448007608F0000530930020003903031D2D2A9B
:100458002E2AE62AB9012C087102031D352A2B0819
:100468007002031C382A392A402A2B087002AD0072
:100478002C08713BAE004C2A2C08F9002B08F80018
:10048800F809F90970087807AD007108793DAE00E0
:100498003008F9002F08F800F936F80CF936F80C8E
:1004A800F936F80C7808BB002E08F9002D08F8007A
:1004B800F936F80CF936F80CF936F80C7808BC005F
:1004C8003C083B020318692A6A2A6E2A3B083C0248
:1004D800BA00712A3C083B02BA003808031D752A85
:1004E800762A852A22000E16103020003A020318B8
:1004F8007E2A7F2AE62AB801B80AB70122000E121E
:10050800E62A10303A0203188A2A8B2A9B2A2200EC
:100518000E120130F8002000370A932AF835890BAB
:10052800922A7808FF3AF9007908F405A92A2200E6
:100538000E160130F8002000370AA32AF835890B77
:10054800A22A7808F9007908F4040130F80078083C
:10055800B70708303702031CB22AB32AB72AB801F2
:100568000130C900E62AE62A05301306031DBD2A14
:10057800BE2AE62A77082000AC007608AB000430D3
:1005880026009300710820002C02031DCD2A700854
:100598002B02031CD02AD12AD82A70082B02AF00BC
:1005A80071082C3BB000E42A7108F9007008F800C3
:1005B800F809F9092B087807AF002C08793DB00035
:1005C800B901B90A080020004903031DEC2AED2AE5
:1005D800572BC901342BC8307406031DF42AF52A99
:1005E800FA2AC701C70A7408A000572BC701572B5E
:1005F8008B307406031D012B022BFA2A7408A10004
:100608000230C700572B7408A2000330C700572BCD
:100618007408A3000430C700572B7408A4000530E1
:10062800C700572B7408A5000630C700572B74085D
:10063800A6000730C700572B7408A7000830C7006A
:10064800572B7408A8000930C700572B7408A90055
:100658000A30C700572B7408AA00C801C80AFA2A2A
:100668004708003A0319EF2A013A0319FC2A033A0A
:100678000319072B013A03190C2B073A0319112BFD
:10068800013A0319162B033A03191B2B013A0319D4
:10069800202B0F3A0319252B013A03192A2B033A69
:1006A80003192F2BFA2A08008431B42483314D30E2
:1006B8002000CA000530CB0086310B2683318B170A
:1006C8000B1720008D1A692B6A2B6C2BBE016E2B21
:1006D800BE01BE0A8D19712B722B742BBF01762BAC
:1006E800BF01BF0A8631522683318231E722833126
:1006F8008331E0238331843111248331200042087F
:10070800031D872B882B932B4303031D8C2B8D2BC9
:100718008F2BC301792B803146208331792BC2017D
:1007280022008D170C148531E525833186312F265B
:100738008331792B803126284C349F34ED343E3474
:100748006634B534C734143459348A34F8342B3405
:100758007334A034D23401348E345D342F34FC34F5
:10076800A43477340534D6349B3448343A34E934E5
:10077800B13462341034C3342D34FE348C345F34D5
:100788000734D434A63475343834EB3499344A34C5
:100798001234C134B3346034EF343C344E349D34B5
:1007A800C53416346434B734FA3429345B348834A5
:1007B800D03403347134A23420002208F300230813
:1007C800C600F201731DE92BEA2BEC2BF216ED2B78
:1007D800F212F31DF02BF12BF32B7216F42B72127D
:1007E800731EF72BF82BFA2BF215FB2BF211F31EC5
:1007F800FE2BFF2B012C7215022C7211C61E052C24
:10080800062C082CF214092CF210461F0C2C0D2C67
:100818000F2C7214102C72100800063020002206CB
:10082800031D172C182C372CD5302A06031D1D2C18
:100838001E2C372C22008D172000C301C30A8631D5
:100848001726843122000C1420004008031D2D2C8B
:100858002E2C332C8B138431722484318B17200077
:10086800C501C401412CC30133304402031C3D2C93
:100878003E2C412C3230C400C001080020003F0843
:10088800031D472C482C612C721C4B2C4C2C522CD1
:10089800250098012000C101C10A712C4108031DDF
:1008A800562C572C5B2CC93025009800712C8B13C3
:1008B8008531082584318B17712CF21C642C652C2A
:1008C800662C4C2C4108031D6A2C6B2C6C2C572C65
:1008D8008B138531082584318B1708002000CC0143
:1008E8004C080C3E2500980002302000CB00AA30AE
:1008F800CA00F630890B7E2CCA0B7E2CCB0B7E2CC3
:10090800000001302000CA004A08CC0731304C02F0
:10091800031C8F2C902C742C3C3025009800200050
:10092800C001C00A0800220090018C018D0110301E
:100938008E00083021009000FE308C007F308D0042
:10094800F9308E00173023008D003F308C002400D2
:10095800900108308D002100951322009D010800A8
:100968008431972484318531C325843186312B26FF
:10097800843185319C2584318531A925843185319F
:10098800DB2584318531F725843185318F25843104
:10099800853139258431080020004B08CD004A08EC
:1009A800CC00CD36CC0CCD36CC0C4C0825009800AC
:1009B80020004A080339CC000430CC35890BE12CDF
:1009C80025001A08CF3920004C0425009A00080099
:1009D80020004B08CD004A08CC00CD36CC0CCD36D3
:1009E800CC0C4C082500910020004A080339CC00A3
:1009F8000430CC35890BFD2C25001308CF39200095
:100A08004C042500930008002000CB01911C0D2DFB
:100A18000E2D0A2D91100130CA004A0825009807AA
:100A280001302000CA004A08CB07C9304B02031C1A
:100A38001E2D1F2D0A2DC10108000B11750820005D
:100A480095000130B1070030B23D003032020A3063
:100A580003193102031C312D322D382D8531B6256D
:100A680085312000B101B201080021001508C03904
:100A7800143895000630200095000630F5000B115B
:100A88008B165430CA000630CB0086310B268531D0
:100A980008000130F60076082000C5070130F6008E
:100AA8007608C407C8304502031C5B2D5C2D5F2DFA
:100AB800C201C20AC50108002000181D642D652D59
:100AC8006C2D18104B0897004A0896001814702DC2
:100AD8004B0897004A089600080020003D08031DAF
:100AE800762D772D7F2DBD01BD0A6430250091003C
:100AF8000000000000000800200013122600110862
:100B0800FA001208FB007B08F7007A08F600823129
:100B18001B228531080010302000990097019601AA
:100B280011101708B6001608B50001309800080023
:100B38000C3025009A009C0180309B0001309D00FC
:100B480099019801F3309E0508000C3025009300A8
:100B58009501803094000130960092019101FC309B
:100B68009E0508002000330834040319BC2DBD2D50
:100B7800C22D34088A0033080A0085310800703015
:100B88002100990098012200960121001A1FCD2DFD
:100B9800CE2DC92D08000030200091180130CA0060
:100BA8004A080319D82DD92DDA2D911008000530DF
:100BB80026009300920191012000131221001316C0
:100BC80008002000BD01C930250091000000000088
:100BD8000000080020003608CB003508CA0085311F
:100BE800602585310800C83020009B009A019110CB
:100BF80007309C000800FE0012001E00FE0B002EAD
:100C08000034640080010131890B062E0034200075
:100C18004B08B4004A08B300080020001608CB00AF
:100C28001708CA0008002000BD012500910108002E
:100C38002000CA004A089A0008002000CA004A0892
:100C48009B0008002000CA004A08950008001630DA
:100C58002100970008000E3025009800080075084C
:100C680020009500080020001C11080020001C1519
:100C7800080020001A0808002000181008002000AA
:100C88001814080020009915080020001108080011
:100C980020001908080020001508080008000800AE
:020CA800080042
:020000040001F9
:04000E00C43FFF1FCD
:00000001FF
