:020000040000FA
:0400000080312628FD
:100008007E1480318B1E09280A2812280B1D0D2802
:100018000E28122884313A24803124280B1F1528F1
:10002800162824282100131E1A281B2824282000FB
:10003800131E1F282028242884318A24803124284C
:100048007E10090080312828F001F101F201F30146
:10005800F401F50120308400003085002A30853114
:100068000C2580317E1020008231852A7208C83E16
:10007800840082300318013E850000082000CD006E
:10008800CE012A084D0603194A284B284C2847292F
:10009800C8302006031951285228532847298B3085
:1000A80021060319582859285A284729C501F21E3C
:1000B8005E285F28632885314D2580316628853183
:1000C8004425803120004E10F21E6B284E1420006B
:1000D800CE10721E7028CE1420004E11F21D752805
:1000E8004E152000CE11721D7A28CE1503298531B0
:1000F8002425803185315025803185314A2580314C
:100108003629853124258031853150258031853146
:100118003C25803136293D08031D932894289728CB
:1001280085312425803185315025803120003E03DA
:10013800031D9F28A028A42883313A23803136291B
:100148008431D924803136293D08031DAC28AD28D7
:10015800B028853124258031853150258031200013
:100168003E03031DB828B928BD2883313A238031BE
:10017800C0288431D92480318531182580318531D2
:100188005025803185314A25803136298531182519
:1001980080318531502580318B283D08031DD528B5
:1001A800D628D928853124258031853150258031BC
:1001B80020003E03031DE128E228A428A0283D08CA
:1001C800031DE728E828EB2885312425803185316F
:1001D8005025803120003E03031DF328F428A4286D
:1001E800A028853118258031853147258031C628DA
:1001F8008531182580318531472580318B282000AD
:100208004E08003A03197B28013A03198528033A56
:1002180003198F28013A0319A828073A0319C02897
:10022800013A0319CA28033A0319C028013A0319E5
:10023800CA280F3A03197B28013A03198528033A7B
:100248000319D128013A0319E328073A0319F528B5
:10025800013A0319FC28033A0319F528013A03194E
:10026800FC2836292000CF014F08203E8600870150
:1002780081010130CC004C08CF070B304F02031C22
:100288004629472938290800043026001306031D8B
:100298004E294F29E5297708F1007608F000053046
:1002A800930020003903031D5A295B29132AB90139
:1002B8002C087102031D62292B087002031C652992
:1002C80066296D292B087002AD002C08713BAE0021
:1002D80079292C08F9002B08F800F809F9097008A1
:1002E8007807AD007108793DAE003008F9002F0895
:1002F800F800F936F80CF936F80CF936F80C7808E5
:10030800BB002E08F9002D08F800F936F80CF9366C
:10031800F80CF936F80C7808BC003C083B020318C6
:10032800962997299B293B083C02BA009E293C083C
:100338003B02BA003808031DA229A329B2292200CA
:100348000E16103020003A020318AB29AC29132AE4
:10035800B801B80AB70122000E12132A10303A0267
:100368000318B729B829C82922000E120130F8004D
:100378002000370AC029F835890BBF297808FF3AC9
:10038800F9007908F405D62922000E160130F80084
:100398002000370AD029F835890BCF297808F900C9
:1003A8007908F4040130F8007808B70708303702F4
:1003B800031CDF29E029E429B8010130C900132A08
:1003C800132A05301306031DEA29EB29132A770897
:1003D8002000AC007608AB000430260093007108BA
:1003E80020002C02031DFA2970082B02031CFD298A
:1003F800FE29052A70082B02AF0071082C3BB000BB
:10040800112A7108F9007008F800F809F9092B0891
:100418007807AF002C08793DB000B901B90A080087
:1004280020004903031D192A1A2A842AC901612AAE
:10043800C8307406031D212A222A272AC701C70AA1
:100448007408A000842AC701842A8B307406031D0F
:100458002E2A2F2A272A7408A1000230C700842ACE
:100468007408A2000330C700842A7408A30004306B
:10047800C700842A7408A4000530C700842A7408B9
:10048800A5000630C700842A7408A6000730C700F4
:10049800842A7408A7000830C700842A7408A800B2
:1004A8000930C700842A7408A9000A30C700842AC2
:1004B8007408AA00C801C80A272A4708003A03197D
:1004C8001C2A013A0319292A033A0319342A013A42
:1004D8000319392A073A03193E2A013A0319432A0C
:1004E800033A0319482A013A03194D2A0F3A031906
:1004F800522A013A0319572A033A03195C2A272A70
:1005080008008331CD23823166302000CA000430D0
:10051800CB008531122582318B170B170030200054
:100528008D1A0130BE0000308D190130BF008531B1
:100538006E25823182311422823183318F238231B8
:1005480083310823823120004208031DAC2AAD2ADA
:10055800B82A4303031DB12AB22AB42AC3019E2A2A
:1005680080313A2082319E2AC20185314D2582315F
:1005780085315025823185311825823185313C25D8
:1005880082319E2A803126284C349F34ED343E3403
:100598006634B534C734143459348A34F8342B34B7
:1005A8007334A034D23401348E345D342F34FC34A7
:1005B800A43477340534D6349B3448343A34E93497
:1005C800B13462341034C3342D34FE348C345F3487
:1005D8000734D434A63475343834EB3499344A3477
:1005E8001234C134B3346034EF343C344E349D3467
:1005F800C53416346434B734FA3429345B34883457
:10060800D03403347134A234063020002206031D8E
:100618000E2B0F2B2F2BD5302A06031D142B152B31
:100628002F2BC301C30A85314D25833185312425FC
:10063800833185315025833120004008031D252B47
:10064800262B2B2B8B1383316A2383318B172000A6
:10065800C501C401392BC30133304402031C352BB7
:10066800362B392B3230C400C001080020003F0867
:10067800031D3F2B402B592B721C432B442B4A2B19
:10068800250098012000C101C10A692B4108031DFA
:100698004E2B4F2B532BC93025009800692B8B13F9
:1006A8008431212483318B17692BF21C5C2B5D2B41
:1006B8005E2B442B4108031D622B632B642B4F2BAD
:1006C8008B138431212483318B1708002000CC013F
:1006D8004C080C3E2500980002302000CB00AA30C0
:1006E800CA00F630890B762BCA0B762BCB0B762BF0
:1006F800000001302000CA004A08CC0731304C0203
:10070800031C872B882B6C2B3C302500980020007D
:10071800C001C00A080020002208F3002308C60010
:10072800F201F212731D992BF2167212F31D9D2B12
:100738007216F211731EA12BF2157211F31EA52B5E
:100748007215F2102000C61EAA2BF2147210200097
:10075800461FAF2B72140800220090018C018D01F6
:1007680010308E00083021009000FE308C007F3061
:100778008D00F9308E00173023008D003F308C003B
:100788002400900108308D002100951322009D015E
:1007980008008331B02383318431CD2483318531FE
:1007A800382583318431A62483318431B3248331BD
:1007B8008431F124833185310425833184319924AE
:1007C8008331843152248331080020004B08CD0046
:1007D8004A08CC00CD36CC0CCD36CC0C4C082500C4
:1007E800980020004A080339CC000430CC35890B26
:1007F800FA2B25001A08CF3920004C0425009A004E
:10080800080020004B08CD004A08CC00CD36CC0C9F
:10081800CD36CC0C4C082500910020004A0803393D
:10082800CC000430CC35890B162C25001308CF39A1
:1008380020004C042500930008002000CB01911CE7
:10084800262C272C232C91100130CA004A08250099
:10085800980701302000CA004A08CB07C9304B026C
:10086800031C372C382C232CC10108000B117508E8
:10087800200095000130B1070030B23D003032024F
:100888000A3003193102031C4A2C4B2C512C843199
:10089800C02484312000B101B201080021001508EC
:1008A800C039143895000630200095000630F50050
:1008B8000B118B167030CA000530CB00853112251C
:1008C800843108000130F60076082000C5070130A1
:1008D800F6007608C407C8304502031C742C752C32
:1008E800782CC201C20AC50108002000181D7D2C01
:1008F8007E2C852C18104B0897004A08960018146F
:10090800892C4B0897004A0896000800200013120B
:1009180026001108FA001208FB007B08F7007A0885
:10092800F6008131482184310800103020009900F8
:100938009701960111101708B6001608B500013086
:10094800980008000C3025009A009C0180309B001C
:1009580001309D0099019801F3309E0508000C3084
:100968002500930095018030940001309600920193
:100978009101FC309E050800200033083404031957
:10098800C62CC72CCC2C34088A0033080A008431C2
:10099800080070302100990098012200960121007A
:1009A8001A1FD72CD82CD32C080020003D03031D78
:1009B800DE2CDF2CE42CBD01BD0A6430250091003B
:1009C80008000030200091180130CA004A080319B5
:1009D800EE2CEF2CF02C9110080005302600930027
:1009E8009201910120001312210013160800200023
:1009F8003608CB003508CA008431792484310800D0
:100A0800C83020009B009A01911007309C00080014
:100A1800640080010131890B0D2D003420004B0842
:100A2800B4004A08B30008002000BD01C930250001
:100A38009100080020001608CB001708CA0008001B
:100A48002000BD012500910108002000CA004A08C5
:100A58009A0008002000CA004A089B0008002000ED
:100A6800CA004A08950008001630210097000800BF
:100A78000E30250098000800750820009500080031
:100A880022008D13080022000C1008002500980190
:100A9800080022008D17080022000C14080020000E
:100AA8001C11080020001C15080020001A08080066
:100AB80020001810080020001814080020009915BC
:100AC800080020001108080020001908080020006C
:0A0AD80015080800080008000800D7
:020000040001F9
:04000E00C43FFF1FCD
:00000001FF
